:100000000C942A000C943F000C943F000C943F0089
:100010000C943F000C943F000C943F000C943F0064
:100020000C943F000C943F000C943F000C943F0054
:100030000C943F000C943F000C943F000C943F0044
:100040000C943F000C943F000C943F000C943F0034
:100050000C943F0011241FBECFE5D4E0DEBFCDBF1E
:1000600010E0A0E6B0E0ECEAF0E202C005900D92EC
:10007000A237B107D9F70E94CB080C9454100C9406
:100080000000EF92FF920F931F937B018C0120E001
:1000900030E040E05FE40E94410388238CF0C80117
:1000A000B70120E030E040E05FE40E94B9010E9427
:1000B000A1039B01AC01205030404040504806C095
:1000C000C801B7010E94A1039B01AC01B901CA019B
:1000D0001F910F91FF90EF900895A0E0B0E0E3E74B
:1000E000F0E00C941D10DC012B01FA019C91923080
:1000F00008F439C1EB018881823008F433C19430AF
:1001000069F4843009F02FC111969C91119789816F
:10011000981709F428C1A0E6B0E025C1843009F49D
:1001200021C18230A9F4923009F01DC19A01AD01BC
:1001300088E0EA010990AE01E90109929E0181502F
:10014000C1F7E201898111969C918923818308C1BD
:10015000923009F407C112962D903C901397EB0151
:100160008A819B811496AD90BD90CD90DC901797BD
:10017000EC80FD800E811F819101281B390BB90194
:1001800037FF04C066277727621B730B6032710547
:100190000CF061C0121613066CF537014801062EEB
:1001A00004C096948794779467940A94D2F721E0D8
:1001B00030E040E050E004C0220F331F441F551FC1
:1001C0006A95D2F721503040404050402E213F21C7
:1001D00040235123211531054105510521F021E02E
:1001E00030E040E050E079018A01E628F72808294C
:1001F00019293CC0232BD1F1260E371E35014601AB
:10020000062E04C096948794779467940A94D2F744
:1002100021E030E040E050E004C0220F331F441FD3
:10022000551F6A95D2F721503040404050402A2156
:100230003B214C215D21211531054105510521F05E
:1002400021E030E040E050E059016A01A628B728DB
:10025000C828D9280BC0821593052CF01C01AA24AC
:10026000BB24650103C0EE24FF24870111969C91F5
:10027000D20111968C91981709F445C0992339F051
:10028000A80197012A193B094C095D0906C0A6017E
:1002900095012E193F09400B510B57FD08C01182E3
:1002A0003382228224833583468357831DC081E0B5
:1002B00081833382228288279927DC01821B930B5A
:1002C000A40BB50B84839583A683B7830DC0220F3F
:1002D000331F441F551F24833583468357838281F0
:1002E000938101979383828324813581468157814D
:1002F000DA01C9010197A109B1098F5F9F4FAF4F83
:10030000BF4328F30BC0918333822282EA0CFB1C8B
:100310000C1D1D1DE482F5820683178383E0808314
:10032000248135814681578157FF1AC0C901AA2708
:1003300097FDA095BA2F81709070A070B0705695FF
:10034000479537952795822B932BA42BB52B848328
:100350009583A683B7838281938101969383828359
:10036000DF0101C0D201CD01CDB7DEB7E2E10C94CF
:100370003910A0E2B0E0EFEBF1E00C9429106983B2
:100380007A838B839C832D833E834F835887E9E058
:10039000EE2EF12CEC0EFD1ECE010196B7010E944F
:1003A000CA048E010F5E1F4FCE010596B8010E9450
:1003B000CA048A8991E089278A8BC701B801AE01F6
:1003C000475E5F4F0E946D000E94F503A096E6E035
:1003D0000C944510A0E2B0E0E0EFF1E00C9429109D
:1003E00069837A838B839C832D833E834F835887D5
:1003F000F9E0EF2EF12CEC0EFD1ECE010196B701B7
:100400000E94CA048E010F5E1F4FCE010596B801EF
:100410000E94CA04C701B801AE01475E5F4F0E9447
:100420006D000E94F503A096E6E00C944510A0E252
:10043000B0E0EDE1F2E00C941D1069837A838B83C8
:100440009C832D833E834F835887CE010196BE0146
:10045000675F7F4F0E94CA04CE010596BE016F5EA2
:100460007F4F0E94CA049985923088F08989823032
:10047000C8F0943019F4823051F404C0843029F467
:10048000923081F480E690E0C6C0923049F420E0DA
:100490009A858A89981321E02A87CE010996BBC0E4
:1004A000823049F420E09A858A89981321E02A8BCA
:1004B000CE014196B0C02D843E844F8458886D880B
:1004C0007E888F88988CEE24FF248701AA24BB2481
:1004D000650140E050E060E070E0E0E0F0E0C10184
:1004E00081709070892BE9F0E60CF71C081D191D2E
:1004F0009A01AB012A0D3B1D4C1D5D1D80E090E073
:10050000A0E0B0E0E614F7040805190520F481E046
:1005100090E0A0E0B0E0BA01A901480F591F6A1F9E
:100520007B1FAA0CBB1CCC1CDD1C97FE08C081E005
:1005300090E0A0E0B0E0A82AB92ACA2ADB2A3196C6
:10054000E032F10549F0660C771C881C991C569422
:10055000479437942794C3CFFA85EA892B893C893D
:100560008B859C85280F391F2E5F3F4F17C0CA010E
:1005700081709070892B61F016950795F794E79438
:1005800080E090E0A0E0B0E8E82AF92A0A2B1B2BD3
:1005900076956795579547952F5F3F4F77FDE7CF46
:1005A0000CC0440F551F661F771F17FD4160EE0CEE
:1005B000FF1C001F111F21503040403090E05907B0
:1005C00090E0690790E4790760F32B8F3C8FDB01A3
:1005D000CA018F779070A070B07080349105A1052A
:1005E000B10561F447FD0AC0E114F10401051105EC
:1005F00029F0405C5F4F6F4F7F4F40781A8EFE1797
:1006000011F081E08A8F4D8F5E8F6F8F78A383E02A
:10061000898FCE0149960E94F503A096E2E10C94E1
:100620003910A8E1B0E0E7E1F3E00C942910698308
:100630007A838B839C832D833E834F83588789E005
:10064000E82EF12CEC0EFD1ECE010196B7010E94A2
:10065000CA048E010F5E1F4FCE010596B8010E949D
:10066000CA048985823040F08989823028F0C70128
:10067000B8010E94420501C08FEF6896E6E00C9435
:100680004510A8E1B0E0E7E4F3E00C942910698399
:100690007A838B839C832D833E834F83588789E0A5
:1006A000E82EF12CEC0EFD1ECE010196B7010E9442
:1006B000CA048E010F5E1F4FCE010596B8010E943D
:1006C000CA048985823040F08989823028F0C701C8
:1006D000B8010E94420501C08FEF6896E6E00C94D5
:1006E0004510A8E1B0E0E7E7F3E00C942910698336
:1006F0007A838B839C832D833E834F83588789E045
:10070000E82EF12CEC0EFD1ECE010196B7010E94E1
:10071000CA048E010F5E1F4FCE010596B8010E94DC
:10072000CA048985823040F08989823028F0C70167
:10073000B8010E94420501C081E06896E6E00C9491
:100740004510ACE0B0E0E7EAF3E00C942D106983CB
:100750007A838B839C83CE010196BE016B5F7F4FB2
:100760000E94CA048D81823061F1823050F1843060
:1007700021F48E81882351F12EC02F81388537FDD9
:1007800020C06E812F3131051CF06623F9F023C0A3
:100790008EE190E0821B930B29853A854B855C8521
:1007A00004C056954795379527958A95D2F76623C5
:1007B000B1F050954095309521953F4F4F4F5F4F89
:1007C0000EC020E030E040E050E009C02FEF3FEFE6
:1007D0004FEF5FE704C020E030E040E050E8B901AF
:1007E000CA012C96E2E00C944910DF92EF92FF923E
:1007F0000F931F93FC01E480F58006811781D1805F
:100800008081823048F480E090E0A0E1B0E0E82A06
:10081000F92A0A2B1B2BA5C0843009F49FC0823013
:1008200021F4EE24FF24870105C0E114F104010541
:10083000110519F4E0E0F0E096C0628173819FEF4A
:10084000623879070CF05BC022E83FEF261B370BBC
:100850002A3131052CF020E030E040E050E02AC0A1
:10086000B801A701022E04C0769567955795479564
:100870000A94D2F781E090E0A0E0B0E004C0880FD5
:10088000991FAA1FBB1F2A95D2F70197A109B10989
:100890008E219F21A023B1230097A105B10521F04E
:1008A00081E090E0A0E0B0E09A01AB01282B392B69
:1008B0004A2B5B2BDA01C9018F779070A070B07062
:1008C00080349105A105B10539F427FF09C0205CEA
:1008D0003F4F4F4F5F4F04C0215C3F4F4F4F5F4F23
:1008E000E0E0F0E02030A0E03A07A0E04A07A0E412
:1008F0005A0710F0E1E0F0E079018A0127C0603882
:10090000710564F5FB01E158FF4FD801C7018F77EE
:100910009070A070B07080349105A105B10539F4D4
:10092000E7FE0DC080E490E0A0E0B0E004C08FE3FB
:1009300090E0A0E0B0E0E80EF91E0A1F1B1F17FFB1
:1009400005C016950795F794E794319687E01695BC
:100950000795F794E7948A95D1F705C0EE24FF2414
:100960008701EFEFF0E06E2F679566276795902F70
:100970009F77D794DD24D7948E2F8695492F462BC9
:10098000582F5D29B701CA011F910F91FF90EF9079
:10099000DF900895FC01DB01408151812281622FAB
:1009A0006F7770E0221F2227221F9381892F880FE3
:1009B000822B282F30E0991F9927991F11969C931D
:1009C000119721153105A9F54115510561057105ED
:1009D00011F482E037C082E89FEF13969C938E93C8
:1009E00012979A01AB0167E0220F331F441F551F76
:1009F0006A95D1F783E08C930DC0220F331F441FFB
:100A0000551F12968D919C911397019713969C9365
:100A10008E931297203080E0380780E0480780E40A
:100A2000580758F314962D933D934D935C93179765
:100A300008952F3F310579F4411551056105710580
:100A400019F484E08C93089564FF03C081E08C93D3
:100A500012C01C9210C02F57304013963C932E9317
:100A6000129783E08C9387E0440F551F661F771F12
:100A70008A95D1F7706414964D935D936D937C9332
:100A8000179708951F93DC01FB019C91923008F4A5
:100A900047C08081823008F443C0943051F41196ED
:100AA0001C91843099F58181682F70E0611B710978
:100AB0003FC0843021F0923031F48230B9F181812D
:100AC000882389F12DC011961C9111978230F1F085
:100AD00081811817D9F412962D913C911397828138
:100AE00093818217930794F028173907BCF0149666
:100AF0008D919D910D90BC91A02D248135814681D1
:100B00005781281739074A075B0718F4112341F06A
:100B10000AC082179307A407B50740F4112319F000
:100B200061E070E005C06FEF7FEF02C060E070E051
:100B3000CB011F910895DF93CF9300D000D00F9287
:100B4000CDB7DEB789836A834B838981282F30E054
:100B50003D832C838C819D818130910509F447C0B0
:100B60002C813D81223031052CF48C819D810097B0
:100B700071F0CBC02C813D812230310509F467C072
:100B80008C819D818330910509F491C0BEC08B8119
:100B90008130A1F4AAE3B0E0EAE3F0E08081482FDD
:100BA0008A81282F30E081E090E0022E02C0880F79
:100BB000991F0A94E2F7842B8C93A7C08B8188231A
:100BC00009F0A3C0AAE3B0E0EAE3F0E08081482F97
:100BD0008A81282F30E081E090E0022E02C0880F49
:100BE000991F0A94E2F7809584238C938EC08B81A1
:100BF0008130A1F4A7E3B0E0E7E3F0E08081482F83
:100C00008A81282F30E081E090E0022E02C0880F18
:100C1000991F0A94E2F7842B8C9377C08B818823E9
:100C200009F073C0A7E3B0E0E7E3F0E08081482F6C
:100C30008A81282F30E081E090E0022E02C0880FE8
:100C4000991F0A94E2F7809584238C935EC08B8170
:100C50008130A1F4A4E3B0E0E4E3F0E08081482F28
:100C60008A81282F30E081E090E0022E02C0880FB8
:100C7000991F0A94E2F7842B8C9347C08B818823B9
:100C800009F043C0A4E3B0E0E4E3F0E08081482F42
:100C90008A81282F30E081E090E0022E02C0880F88
:100CA000991F0A94E2F7809584238C932EC08B8140
:100CB0008130A1F4A1E3B0E0E1E3F0E08081482FCE
:100CC0008A81282F30E081E090E0022E02C0880F58
:100CD000991F0A94E2F7842B8C9317C08B81882389
:100CE000A1F4A1E3B0E0E1E3F0E08081482F8A8144
:100CF000282F30E081E090E0022E02C0880F991F7B
:100D00000A94E2F7809584238C930F900F900F90B4
:100D10000F900F90CF91DF910895DF93CF9300D084
:100D200000D00F92CDB7DEB789836A834B83898168
:100D3000282F30E03D832C838C819D81813091056B
:100D400009F447C02C813D81223031052CF48C817F
:100D50009D81009771F0CBC02C813D8122303105FF
:100D600009F467C08C819D818330910509F491C09D
:100D7000BEC08B818823A9F4ABE3B0E0EBE3F0E0E5
:100D80008081482F8A81282F30E081E090E0022E78
:100D900002C0880F991F0A94E2F7809584238C93F0
:100DA000A6C08B81813009F0A2C0ABE3B0E0EBE3D9
:100DB000F0E08081482F8A81282F30E081E090E0A8
:100DC000022E02C0880F991F0A94E2F7842B8C939D
:100DD0008EC08B818823A9F4A8E3B0E0E8E3F0E0BB
:100DE0008081482F8A81282F30E081E090E0022E18
:100DF00002C0880F991F0A94E2F7809584238C9390
:100E000076C08B81813009F072C0A8E3B0E0E8E3DE
:100E1000F0E08081482F8A81282F30E081E090E047
:100E2000022E02C0880F991F0A94E2F7842B8C933C
:100E30005EC08B818823A9F4A5E3B0E0E5E3F0E090
:100E40008081482F8A81282F30E081E090E0022EB7
:100E500002C0880F991F0A94E2F7809584238C932F
:100E600046C08B81813009F042C0A5E3B0E0E5E3E4
:100E7000F0E08081482F8A81282F30E081E090E0E7
:100E8000022E02C0880F991F0A94E2F7842B8C93DC
:100E90002EC08B818823A9F4A2E3B0E0E2E3F0E066
:100EA0008081482F8A81282F30E081E090E0022E57
:100EB00002C0880F991F0A94E2F7809584238C93CF
:100EC00016C08B81813099F4A2E3B0E0E2E3F0E058
:100ED0008081482F8A81282F30E081E090E0022E27
:100EE00002C0880F991F0A94E2F7842B8C930F900D
:100EF0000F900F900F900F90CF91DF910895DF9397
:100F0000CF93CDB7DEB727970FB6F894DEBF0FBEED
:100F1000CDBF8A836B838A81282F30E03E832D8367
:100F20004D815E814130510559F18D819E81823024
:100F3000910534F42D813E812115310569F05CC0A5
:100F40004D815E814230510579F18D819E818330E2
:100F5000910509F43DC050C0EBE3F0E08081282FFB
:100F600030E08B81882F90E0A90102C0559547950C
:100F70008A95E2F7CA018170898359815C833DC0FB
:100F8000E8E3F0E08081282F30E08B81882F90E02B
:100F9000A90102C0559547958A95E2F7CA0181706B
:100FA000898359815C8329C0E5E3F0E08081282FA3
:100FB00030E08B81882F90E0A90102C055954795BC
:100FC0008A95E2F7CA018170898359815C8315C0D3
:100FD000E2E3F0E08081282F30E08B81882F90E0E1
:100FE000A90102C0559547958A95E2F7CA0181701B
:100FF000898359815C8301C002C08C818F838F817A
:1010000027960FB6F894DEBF0FBECDBFCF91DF910C
:101010000895DF93CF9300D000D0CDB7DEB789839A
:101020006A838981843090F58981282F30E03C8360
:101030002B838B819C8181309105D1F02B813C8168
:10104000223031052CF48B819C81009761F01EC009
:101050002B813C812230310581F08B819C81833052
:10106000910581F013C0EAE3F0E08A8180830EC02D
:10107000E7E3F0E08A81808309C0E4E3F0E08A815D
:10108000808304C0E1E3F0E08A8180830F900F90B9
:101090000F900F90CF91DF910895DF93CF9300D001
:1010A00000D0CDB7DEB789836A838981843090F51B
:1010B0008981282F30E03C832B838B819C81813078
:1010C0009105D1F02B813C81223031052CF48B81AC
:1010D0009C81009761F01EC02B813C81223031053C
:1010E00081F08B819C818330910581F013C0EBE30B
:1010F000F0E08A8180830EC0E8E3F0E08A8180839B
:1011000009C0E5E3F0E08A81808304C0E2E3F0E017
:101110008A8180830F900F900F900F90CF91DF9175
:101120000895DF93CF9300D000D0CDB7DEB7898389
:101130008981843010F01C8226C08981282F30E0FC
:101140003B832A838A819B818130910571F02A81BA
:101150003B812230310571F08A819B81009779F4BF
:10116000E9E3F0E090819C830EC0E6E3F0E02081AB
:101170002C8309C0E3E3F0E030813C8304C0E0E36A
:10118000F0E080818C838C810F900F900F900F90F6
:10119000CF91DF9108950F931F93DF93CF93CDB736
:1011A000DEB7CE58D0400FB6F894DEBF0FBECDBF2D
:1011B00080E060E041E00E949B0580E061E041E06A
:1011C0000E949B0580E062E041E00E949B0582E076
:1011D0006FE70E94090883E060E041E00E949B0500
:1011E00083E061E041E00E949B0580E064E00E94B2
:1011F0004D08FE01E257FF4F10823FC3FE01E35747
:10120000FF4F81E0808329C3FE01E257FF4F8081B9
:10121000882F90E08A30910509F088C183E060E072
:1012200040E00E948D0683E061E041E00E948D066F
:101230009091680082E0692F0E944D08FE01E757F7
:10124000FF4F80E090E0A0E2B1E480839183A2832D
:10125000B3838E010B571F4FFE01E757FF4F60818D
:1012600071818281938120E030E04AEF54E40E9452
:101270001702DC01CB01F80180839183A283B38341
:10128000FE01EB57FF4F608171818281938120E0E5
:1012900030E040E85FE30E947103882344F4FE01DC
:1012A000ED57FF4F81E090E09183808364C0FE01A1
:1012B000EB57FF4F608171818281938120E03FEF86
:1012C0004FE757E40E94110318160CF043C0FE01CB
:1012D000E757FF4F608171818281938120E030E088
:1012E00040E251E40E941702DC01CB018E010D5750
:1012F0001F4FBC01CD010E944100DC01CB01F80170
:10130000918380831FC0FE01EF57FF4F88EC90E070
:1013100091838083FE01EF57FF4F80819181019778
:10132000F1F7FE01EF57FF4F91838083DE01AD5748
:10133000BF4FFE01ED57FF4F8081918101971196BC
:101340009C938E93FE01ED57FF4F80819181009712
:10135000D1F627C08E010D571F4FFE01EB57FF4FEF
:1013600060817181828193810E944100DC01CB0107
:10137000F80191838083DE01A158BF4FFE01ED5734
:10138000FF4F808191818D939C93FE01E158FF4F27
:10139000808191810197F1F7FE01E158FF4F918320
:1013A000808383E061E040E00E948D0683E060E09E
:1013B00041E00E948D069091690082E0692F0E94B1
:1013C0004D08FE01E558FF4F80E090E0A0E2B1E457
:1013D00080839183A283B3838E0109581F4FFE013E
:1013E000E558FF4F608171818281938120E030E078
:1013F0004AEF54E40E941702DC01CB01F80180831C
:101400009183A283B383FE01E958FF4F608171810C
:101410008281938120E030E040E85FE30E94710325
:10142000882344F4FE01EB58FF4F81E090E0918364
:10143000808364C0FE01E958FF4F60817181828121
:10144000938120E03FEF4FE757E40E941103181605
:101450000CF043C0FE01E558FF4F6081718182812D
:10146000938120E030E040E251E40E941702DC0169
:10147000CB018E010B581F4FBC01CD010E944100D2
:10148000DC01CB01F801918380831FC0FE01ED5880
:10149000FF4F88EC90E091838083FE01ED58FF4F71
:1014A000808191810197F1F7FE01ED58FF4F918303
:1014B0008083DE01AB58BF4FFE01EB58FF4F8081A8
:1014C0009181019711969C938E93FE01EB58FF4FEB
:1014D000808191810097D1F6B7C18E010B581F4FC3
:1014E000FE01E958FF4F60817181828193810E94E2
:1014F0004100DC01CB01F80191838083DE01AF580C
:10150000BF4FFE01EB58FF4F8081918111969C9354
:101510008E93FE01EF58FF4F808191810197F1F783
:10152000FE01EF58FF4F918380838EC183E060E01E
:1015300040E00E948D0683E061E041E00E948D065C
:10154000FE01E257FF4F8081882F90E0FC01E859AF
:10155000FF4F908182E0692F0E944D08FE01E35900
:10156000FF4F80E090E0A0E2B1E480839183A2830A
:10157000B3838E0107591F4FFE01E359FF4F60816E
:1015800071818281938120E030E04AEF54E40E942F
:101590001702DC01CB01F80180839183A283B3831E
:1015A000FE01E759FF4F608171818281938120E0C4
:1015B00030E040E85FE30E947103882344F4FE01B9
:1015C000E959FF4F81E090E09183808364C0FE0180
:1015D000E759FF4F608171818281938120E03FEF65
:1015E0004FE757E40E94110318160CF043C0FE01A8
:1015F000E359FF4F608171818281938120E030E067
:1016000040E251E40E941702DC01CB018E0109592E
:101610001F4FBC01CD010E944100DC01CB01F8014C
:10162000918380831FC0FE01EB59FF4F88EC90E04F
:1016300091838083FE01EB59FF4F80819181019757
:10164000F1F7FE01EB59FF4F91838083DE01A95929
:10165000BF4FFE01E959FF4F80819181019711969B
:101660009C938E93FE01E959FF4F808191810097F1
:10167000D1F627C08E0109591F4FFE01E759FF4FD0
:1016800060817181828193810E944100DC01CB01E4
:10169000F80191838083DE01AD59BF4FFE01E95906
:1016A000FF4F808191818D939C93FE01ED59FF4FF7
:1016B000808191810197F1F7FE01ED59FF4F9183F0
:1016C000808383E061E040E00E948D0683E060E07B
:1016D00041E00E948D069091680082E0692F0E948F
:1016E0004D08FE01E15AFF4F80E090E0A0E2B1E436
:1016F00080839183A283B3838E01055A1F4FFE011D
:10170000E15AFF4F608171818281938120E030E056
:101710004AEF54E40E941702DC01CB01F8018083F8
:101720009183A283B383FE01E55AFF4F60817181EB
:101730008281938120E030E040E85FE30E94710302
:10174000882344F4FE01E75AFF4F81E090E0918343
:10175000808364C0FE01E55AFF4F60817181828100
:10176000938120E03FEF4FE757E40E9411031816E2
:101770000CF043C0FE01E15AFF4F6081718182810C
:10178000938120E030E040E251E40E941702DC0146
:10179000CB018E01075A1F4FBC01CD010E944100B1
:1017A000DC01CB01F801918380831FC0FE01E95A5F
:1017B000FF4F88EC90E091838083FE01E95AFF4F50
:1017C000808191810197F1F7FE01E95AFF4F9183E2
:1017D0008083DE01A75ABF4FFE01E75AFF4F808189
:1017E0009181019711969C938E93FE01E75AFF4FCA
:1017F000808191810097D1F627C08E01075A1F4F33
:10180000FE01E55AFF4F60817181828193810E94C0
:101810004100DC01CB01F80191838083DE01AB5AEA
:10182000BF4FFE01E75AFF4F808191818D939C93BA
:10183000FE01EB5AFF4F808191810197F1F7FE0184
:10184000EB5AFF4F91838083DE01A357BF4FFE0108
:10185000E357FF4F80818F5F8C93FE01E357FF4F6B
:101860008081833308F4D0CCDE01A257BF4FFE0144
:10187000E257FF4F80818F5F8C93FE01E257FF4F4D
:1018800080818B3008F4BACC80E062E00E944D0881
:10189000FE01E257FF4F10827FC1FE01E357FF4F69
:1018A00081E0808369C183E060E040E00E948D06B2
:1018B00083E061E041E00E948D06FE01E257FF4FA8
:1018C0008081882F90E0FC01E859FF4F908182E0F1
:1018D000692F0E944D08FE01EF5AFF4F80E090E013
:1018E000A0E2B1E480839183A283B3838E01035B82
:1018F0001F4FFE01EF5AFF4F6081718182819381FA
:1019000020E030E04AEF54E40E941702DC01CB01F2
:10191000F80180839183A283B383FE01E35BFF4FD1
:10192000608171818281938120E030E040E85FE353
:101930000E947103882344F4FE01E55BFF4F81E0C0
:1019400090E09183808364C0FE01E35BFF4F608180
:1019500071818281938120E03FEF4FE757E40E943D
:10196000110318160CF043C0FE01EF5AFF4F6081BF
:1019700071818281938120E030E040E251E40E9455
:101980001702DC01CB018E01055B1F4FBC01CD01AD
:101990000E944100DC01CB01F801918380831FC0CC
:1019A000FE01E75BFF4F88EC90E091838083FE01AE
:1019B000E75BFF4F808191810197F1F7FE01E75BC3
:1019C000FF4F91838083DE01A55BBF4FFE01E55B86
:1019D000FF4F80819181019711969C938E93FE0118
:1019E000E55BFF4F808191810097D1F627C08E0182
:1019F000055B1F4FFE01E35BFF4F608171818281B8
:101A000093810E944100DC01CB01F8019183808326
:101A1000DE01A95BBF4FFE01E55BFF4F8081918135
:101A20008D939C93FE01E95BFF4F8081918101972B
:101A3000F1F7FE01E95BFF4F9183808383E061E072
:101A400040E00E948D0683E060E041E00E948D0648
:101A50009091680082E0692F0E944D08FE01ED5BC5
:101A6000FF4F80E090E0A0E2B1E480839183A28305
:101A7000B3838E01015C1F4FFE01ED5BFF4F608160
:101A800071818281938120E030E04AEF54E40E942A
:101A90001702DC01CB01F80180839183A283B38319
:101AA000FE01FF96608171818281938120E030E0A8
:101AB00040E85FE30E94710388232CF481E090E00A
:101AC0009EAF8DAF46C0FE01FF966081718182811D
:101AD000938120E03FEF4FE757E40E94110318166F
:101AE00064F5FE01ED5BFF4F60817181828193811E
:101AF00020E030E040E251E40E941702DC01CB011B
:101B0000BC01CD010E944100DC01CB019EAF8DAF35
:101B10000FC088EC90E09CAF8BAF8BAD9CAD019774
:101B2000F1F79CAF8BAF8DAD9EAD01979EAF8DAFA2
:101B30008DAD9EAD009769F716C0FE01FF966081DE
:101B40007181828193810E944100DC01CB019EAFB3
:101B50008DAF8DAD9EAD9AAF89AF89AD9AAD01972E
:101B6000F1F79AAF89AFDE01A357BF4FFE01E357EC
:101B7000FF4F80818F5F8C93FE01E357FF4F808181
:101B8000833308F490CEDE01A257BF4FFE01E25727
:101B9000FF4F80818F5F8C93FE01E257FF4F808162
:101BA000843008F47ACE80E061E00E944D08FE01A6
:101BB000E257FF4F108239C2FE01E357FF4F1082F8
:101BC00024C2FE01E257FF4F8081882F90E08A30C7
:101BD000910509F005C183E060E040E00E948D06B8
:101BE00083E061E041E00E948D069091680082E010
:101BF000692F0E944D0880E090E0A0E2B1E48DAB37
:101C00009EABAFABB8AF6DA97EA98FA998AD20E010
:101C100030E04AEF54E40E941702DC01CB0189ABAB
:101C20009AABABABBCAB69A97AA98BA99CA920E004
:101C300030E040E85FE30E94710388232CF481E0E8
:101C400090E098AB8FA73FC069A97AA98BA99CA9FE
:101C500020E03FEF4FE757E40E94110318164CF5C0
:101C60006DA97EA98FA998AD20E030E040E251E453
:101C70000E941702DC01CB01BC01CD010E94410092
:101C8000DC01CB0198AB8FA70FC088EC90E09EA73A
:101C90008DA78DA59EA50197F1F79EA78DA78FA56E
:101CA00098A9019798AB8FA78FA598A9009769F776
:101CB00014C069A97AA98BA99CA90E944100DC01E2
:101CC000CB0198AB8FA78FA598A99CA78BA78BA5B5
:101CD0009CA50197F1F79CA78BA783E061E040E00A
:101CE0000E948D0683E060E041E00E948D069091A5
:101CF000690082E0692F0E944D0880E090E0A0E238
:101D0000B1E48FA398A7A9A7BAA76FA178A589A5C1
:101D10009AA520E030E04AEF54E40E941702DC016B
:101D2000CB018BA39CA3ADA3BEA36BA17CA18DA172
:101D30009EA120E030E040E85FE30E947103882329
:101D40002CF481E090E09AA389A33FC06BA17CA111
:101D50008DA19EA120E03FEF4FE757E40E941103C1
:101D600018164CF56FA178A589A59AA520E030E05A
:101D700040E251E40E941702DC01CB01BC01CD011D
:101D80000E944100DC01CB019AA389A30FC088EC1B
:101D900090E098A38F8F8F8D98A10197F1F798A36A
:101DA0008F8F89A19AA101979AA389A389A19AA14A
:101DB000009769F721C16BA17CA18DA19EA10E9412
:101DC0004100DC01CB019AA389A389A19AA19E8F2E
:101DD0008D8F8D8D9E8D0197F1F79E8F8D8F0CC10C
:101DE00083E060E040E00E948D0683E061E041E036
:101DF0000E948D06FE01E257FF4F8081882F90E000
:101E0000FC01E859FF4F908182E0692F0E944D0844
:101E100080E090E0A0E2B1E4898F9A8FAB8FBC8F15
:101E2000698D7A8D8B8D9C8D20E030E04AEF54E4F3
:101E30000E941702DC01CB018D8B9E8BAF8BB88F7C
:101E40006D897E898F89988D20E030E040E85FE3DE
:101E50000E94710388232CF481E090E09C8B8B8B93
:101E60003FC06D897E898F89988D20E03FEF4FE7D5
:101E700057E40E94110318164CF5698D7A8D8B8DED
:101E80009C8D20E030E040E251E40E941702DC012A
:101E9000CB01BC01CD010E944100DC01CB019C8B38
:101EA0008B8B0FC088EC90E09A8B898B89899A89FB
:101EB0000197F1F79A8B898B8B899C8901979C8B71
:101EC0008B8B8B899C89009769F714C06D897E89FB
:101ED0008F89988D0E944100DC01CB019C8B8B8BFC
:101EE0008B899C89988B8F878F8598890197F1F7CB
:101EF000988B8F8783E061E040E00E948D0683E04D
:101F000060E041E00E948D069091680082E0692FB8
:101F10000E944D0880E090E0A0E2B1E48B879C87AE
:101F2000AD87BE876B857C858D859E8520E030E002
:101F30004AEF54E40E941702DC01CB018F8398879B
:101F4000A987BA876F81788589859A8520E030E0F6
:101F500040E85FE30E94710388232CF481E090E065
:101F60009E838D833FC06F81788589859A8520E027
:101F70003FEF4FE757E40E94110318164CF56B85AD
:101F80007C858D859E8520E030E040E251E40E9412
:101F90001702DC01CB01BC01CD010E944100DC0134
:101FA000CB019E838D830FC088EC90E09C838B8354
:101FB0008B819C810197F1F79C838B838D819E811E
:101FC00001979E838D838D819E81009769F714C050
:101FD0006F81788589859A850E944100DC01CB015B
:101FE0009E838D838D819E819A83898389819A8145
:101FF0000197F1F79A838983DE01A357BF4FFE0152
:10200000E357FF4F80818F5F8C93FE01E357FF4FB3
:102010008081833308F4D5CDDE01A257BF4FFE0186
:10202000E257FF4F80818F5F8C93FE01E257FF4F95
:1020300080818B3008F4C0CDD8C82F923F924F9248
:102040005F926F927F928F929F92AF92BF92CF9248
:10205000DF92EF92FF920F931F93CF93DF93CDB751
:10206000DEB7CA1BDB0B0FB6F894DEBF0FBECDBFC9
:1020700009942A88398848885F846E847D848C849A
:102080009B84AA84B984C884DF80EE80FD800C81A3
:102090001B81AA81B981CE0FD11D0FB6F894DEBF86
:0C20A0000FBECDBFED010895F894FFCFF6
:1020AC000000000000000000C0F9A4B0999282F872
:0220BC00809012
:00000001FF
